{
  "contractName": "SmartContract",
  "abi": [
    {
      "inputs": [
        {
          "internalType": "string",
          "name": "id",
          "type": "string"
        }
      ],
      "name": "getVehicleSpeed",
      "outputs": [
        {
          "internalType": "uint256",
          "name": "",
          "type": "uint256"
        }
      ],
      "stateMutability": "view",
      "type": "function",
      "constant": true
    },
    {
      "inputs": [
        {
          "internalType": "string",
          "name": "id",
          "type": "string"
        }
      ],
      "name": "getVehicleCurrentEdge",
      "outputs": [
        {
          "internalType": "string",
          "name": "",
          "type": "string"
        }
      ],
      "stateMutability": "view",
      "type": "function",
      "constant": true
    },
    {
      "inputs": [
        {
          "internalType": "string",
          "name": "id",
          "type": "string"
        }
      ],
      "name": "getVehicleRouteIndex",
      "outputs": [
        {
          "internalType": "uint256",
          "name": "",
          "type": "uint256"
        }
      ],
      "stateMutability": "view",
      "type": "function",
      "constant": true
    },
    {
      "inputs": [
        {
          "internalType": "string",
          "name": "id",
          "type": "string"
        }
      ],
      "name": "getVehicleNextEdge",
      "outputs": [
        {
          "internalType": "string",
          "name": "",
          "type": "string"
        }
      ],
      "stateMutability": "view",
      "type": "function",
      "constant": true
    },
    {
      "inputs": [
        {
          "internalType": "string",
          "name": "id",
          "type": "string"
        },
        {
          "internalType": "uint256",
          "name": "speed",
          "type": "uint256"
        },
        {
          "internalType": "string",
          "name": "current_edge_id",
          "type": "string"
        },
        {
          "internalType": "uint256",
          "name": "route_index",
          "type": "uint256"
        },
        {
          "internalType": "string",
          "name": "next_edge",
          "type": "string"
        }
      ],
      "name": "updateVehicleInfo",
      "outputs": [],
      "stateMutability": "nonpayable",
      "type": "function"
    }
  ],
  "bytecode": "0x608060405234801561001057600080fd5b50610ebb806100206000396000f3fe608060405234801561001057600080fd5b50600436106100575760003560e01c806342002f211461005c5780635c403bb91461008c578063831ee0ee146100bc578063d2d0faa1146100d8578063e0133f2314610108575b600080fd5b61007660048036038101906100719190610b2c565b610138565b6040516100839190610cbc565b60405180910390f35b6100a660048036038101906100a19190610b2c565b61033d565b6040516100b39190610cde565b60405180910390f35b6100d660048036038101906100d19190610b6d565b610542565b005b6100f260048036038101906100ed9190610b2c565b610602565b6040516100ff9190610cbc565b60405180910390f35b610122600480360381019061011d9190610b2c565b610807565b60405161012f9190610cde565b60405180910390f35b60606000808360405161014b9190610ca5565b90815260200160405180910390206040518060a001604052908160008201805461017490610dcd565b80601f01602080910402602001604051908101604052809291908181526020018280546101a090610dcd565b80156101ed5780601f106101c2576101008083540402835291602001916101ed565b820191906000526020600020905b8154815290600101906020018083116101d057829003601f168201915b505050505081526020016001820154815260200160028201805461021090610dcd565b80601f016020809104026020016040519081016040528092919081815260200182805461023c90610dcd565b80156102895780601f1061025e57610100808354040283529160200191610289565b820191906000526020600020905b81548152906001019060200180831161026c57829003601f168201915b50505050508152602001600382015481526020016004820180546102ac90610dcd565b80601f01602080910402602001604051908101604052809291908181526020018280546102d890610dcd565b80156103255780601f106102fa57610100808354040283529160200191610325565b820191906000526020600020905b81548152906001019060200180831161030857829003601f168201915b50505050508152505090508060800151915050919050565b6000806000836040516103509190610ca5565b90815260200160405180910390206040518060a001604052908160008201805461037990610dcd565b80601f01602080910402602001604051908101604052809291908181526020018280546103a590610dcd565b80156103f25780601f106103c7576101008083540402835291602001916103f2565b820191906000526020600020905b8154815290600101906020018083116103d557829003601f168201915b505050505081526020016001820154815260200160028201805461041590610dcd565b80601f016020809104026020016040519081016040528092919081815260200182805461044190610dcd565b801561048e5780601f106104635761010080835404028352916020019161048e565b820191906000526020600020905b81548152906001019060200180831161047157829003601f168201915b50505050508152602001600382015481526020016004820180546104b190610dcd565b80601f01602080910402602001604051908101604052809291908181526020018280546104dd90610dcd565b801561052a5780601f106104ff5761010080835404028352916020019161052a565b820191906000526020600020905b81548152906001019060200180831161050d57829003601f168201915b50505050508152505090508060200151915050919050565b60006040518060a001604052808781526020018681526020018581526020018481526020018381525090508060008760405161057e9190610ca5565b908152602001604051809103902060008201518160000190805190602001906105a8929190610a0c565b506020820151816001015560408201518160020190805190602001906105cf929190610a0c565b506060820151816003015560808201518160040190805190602001906105f6929190610a0c565b50905050505050505050565b6060600080836040516106159190610ca5565b90815260200160405180910390206040518060a001604052908160008201805461063e90610dcd565b80601f016020809104026020016040519081016040528092919081815260200182805461066a90610dcd565b80156106b75780601f1061068c576101008083540402835291602001916106b7565b820191906000526020600020905b81548152906001019060200180831161069a57829003601f168201915b50505050508152602001600182015481526020016002820180546106da90610dcd565b80601f016020809104026020016040519081016040528092919081815260200182805461070690610dcd565b80156107535780601f1061072857610100808354040283529160200191610753565b820191906000526020600020905b81548152906001019060200180831161073657829003601f168201915b505050505081526020016003820154815260200160048201805461077690610dcd565b80601f01602080910402602001604051908101604052809291908181526020018280546107a290610dcd565b80156107ef5780601f106107c4576101008083540402835291602001916107ef565b820191906000526020600020905b8154815290600101906020018083116107d257829003601f168201915b50505050508152505090508060400151915050919050565b60008060008360405161081a9190610ca5565b90815260200160405180910390206040518060a001604052908160008201805461084390610dcd565b80601f016020809104026020016040519081016040528092919081815260200182805461086f90610dcd565b80156108bc5780601f10610891576101008083540402835291602001916108bc565b820191906000526020600020905b81548152906001019060200180831161089f57829003601f168201915b50505050508152602001600182015481526020016002820180546108df90610dcd565b80601f016020809104026020016040519081016040528092919081815260200182805461090b90610dcd565b80156109585780601f1061092d57610100808354040283529160200191610958565b820191906000526020600020905b81548152906001019060200180831161093b57829003601f168201915b505050505081526020016003820154815260200160048201805461097b90610dcd565b80601f01602080910402602001604051908101604052809291908181526020018280546109a790610dcd565b80156109f45780601f106109c9576101008083540402835291602001916109f4565b820191906000526020600020905b8154815290600101906020018083116109d757829003601f168201915b50505050508152505090508060600151915050919050565b828054610a1890610dcd565b90600052602060002090601f016020900481019282610a3a5760008555610a81565b82601f10610a5357805160ff1916838001178555610a81565b82800160010185558215610a81579182015b82811115610a80578251825591602001919060010190610a65565b5b509050610a8e9190610a92565b5090565b5b80821115610aab576000816000905550600101610a93565b5090565b6000610ac2610abd84610d2a565b610cf9565b905082815260208101848484011115610ada57600080fd5b610ae5848285610d8b565b509392505050565b600082601f830112610afe57600080fd5b8135610b0e848260208601610aaf565b91505092915050565b600081359050610b2681610e6e565b92915050565b600060208284031215610b3e57600080fd5b600082013567ffffffffffffffff811115610b5857600080fd5b610b6484828501610aed565b91505092915050565b600080600080600060a08688031215610b8557600080fd5b600086013567ffffffffffffffff811115610b9f57600080fd5b610bab88828901610aed565b9550506020610bbc88828901610b17565b945050604086013567ffffffffffffffff811115610bd957600080fd5b610be588828901610aed565b9350506060610bf688828901610b17565b925050608086013567ffffffffffffffff811115610c1357600080fd5b610c1f88828901610aed565b9150509295509295909350565b6000610c3782610d5a565b610c418185610d65565b9350610c51818560208601610d9a565b610c5a81610e5d565b840191505092915050565b6000610c7082610d5a565b610c7a8185610d76565b9350610c8a818560208601610d9a565b80840191505092915050565b610c9f81610d81565b82525050565b6000610cb18284610c65565b915081905092915050565b60006020820190508181036000830152610cd68184610c2c565b905092915050565b6000602082019050610cf36000830184610c96565b92915050565b6000604051905081810181811067ffffffffffffffff82111715610d2057610d1f610e2e565b5b8060405250919050565b600067ffffffffffffffff821115610d4557610d44610e2e565b5b601f19601f8301169050602081019050919050565b600081519050919050565b600082825260208201905092915050565b600081905092915050565b6000819050919050565b82818337600083830152505050565b60005b83811015610db8578082015181840152602081019050610d9d565b83811115610dc7576000848401525b50505050565b60006002820490506001821680610de557607f821691505b60208210811415610df957610df8610dff565b5b50919050565b7f4e487b7100000000000000000000000000000000000000000000000000000000600052602260045260246000fd5b7f4e487b7100000000000000000000000000000000000000000000000000000000600052604160045260246000fd5b6000601f19601f8301169050919050565b610e7781610d81565b8114610e8257600080fd5b5056fea2646970667358221220052addd8b08756deff0e91599eccecdf7b45244413bfadaf8801e66db7bc545d64736f6c63430008000033",
  "immutableReferences": {},
  "source": "// SPDX-License-Identifier: MIT\r\npragma solidity ^0.8.0;\r\n\r\ncontract SmartContract {\r\n    // Define a struct to represent a vehicle\r\n    struct Vehicle {\r\n        string id;\r\n        uint256 speed;\r\n        string current_edge_id;\r\n        uint256 route_index;\r\n        string next_edge;\r\n    }\r\n\r\n    // Define a mapping to store vehicle data by ID\r\n    mapping (string => Vehicle) vehicles;\r\n\r\n    // Function to retrieve vehicle data by ID\r\n    function getVehicleSpeed(string memory id) public view returns (uint256) {\r\n        Vehicle memory vehicle = vehicles[id];\r\n        return (vehicle.speed);\r\n    }\r\n    function getVehicleCurrentEdge(string memory id) public view returns (string memory) {\r\n        Vehicle memory vehicle = vehicles[id];\r\n        return (vehicle.current_edge_id);\r\n    }\r\n    function getVehicleRouteIndex(string memory id) public view returns (uint256) {\r\n        Vehicle memory vehicle = vehicles[id];\r\n        return (vehicle.route_index);\r\n    }\r\n    function getVehicleNextEdge(string memory id) public view returns (string memory) {\r\n        Vehicle memory vehicle = vehicles[id];\r\n        return (vehicle.next_edge);\r\n    }\r\n\r\n    // Function to update vehicle data by ID\r\n    function updateVehicleInfo(string memory id, uint256 speed,string memory current_edge_id ,uint256 route_index,string memory next_edge) public {\r\n        Vehicle memory vehicle = Vehicle(id, speed,current_edge_id, route_index,next_edge);\r\n        vehicles[id] = vehicle;\r\n    }\r\n}",
  "sourcePath": "C:\\Users\\n1704\\Documents\\Academics\\E4_SEM2\\Project\\AI_Integrated_Blockchain-Autonomous\\contracts\\SmartContract.sol",
  "compiler": {
    "name": "solc",
    "version": "0.8.0+commit.c7dfd78e.Emscripten.clang"
  },
  "schemaVersion": "3.4.12",
  "updatedAt": "2023-03-03T19:38:47.134Z",
  "networkType": "ethereum",
  "devdoc": {
    "kind": "dev",
    "methods": {},
    "version": 1
  },
  "userdoc": {
    "kind": "user",
    "methods": {},
    "version": 1
  }
}