{
  "contractName": "SmartContract",
  "abi": [
    {
      "inputs": [
        {
          "internalType": "string",
          "name": "id",
          "type": "string"
        }
      ],
      "name": "getVehicleSpeed",
      "outputs": [
        {
          "internalType": "uint256",
          "name": "",
          "type": "uint256"
        }
      ],
      "stateMutability": "view",
      "type": "function",
      "constant": true
    },
    {
      "inputs": [
        {
          "internalType": "string",
          "name": "id",
          "type": "string"
        }
      ],
      "name": "getVehicleCurrentEdge",
      "outputs": [
        {
          "internalType": "string",
          "name": "",
          "type": "string"
        }
      ],
      "stateMutability": "view",
      "type": "function",
      "constant": true
    },
    {
      "inputs": [
        {
          "internalType": "string",
          "name": "id",
          "type": "string"
        }
      ],
      "name": "getVehicleRoute",
      "outputs": [
        {
          "internalType": "string[]",
          "name": "",
          "type": "string[]"
        }
      ],
      "stateMutability": "view",
      "type": "function",
      "constant": true
    },
    {
      "inputs": [
        {
          "internalType": "string",
          "name": "id",
          "type": "string"
        }
      ],
      "name": "getVehicleRouteIndex",
      "outputs": [
        {
          "internalType": "uint256",
          "name": "",
          "type": "uint256"
        }
      ],
      "stateMutability": "view",
      "type": "function",
      "constant": true
    },
    {
      "inputs": [
        {
          "internalType": "string",
          "name": "id",
          "type": "string"
        }
      ],
      "name": "getVehicleNextEdge",
      "outputs": [
        {
          "internalType": "string",
          "name": "",
          "type": "string"
        }
      ],
      "stateMutability": "view",
      "type": "function",
      "constant": true
    },
    {
      "inputs": [
        {
          "internalType": "string",
          "name": "id",
          "type": "string"
        }
      ],
      "name": "getVehicleNextEdgeVehicles",
      "outputs": [
        {
          "internalType": "string[]",
          "name": "",
          "type": "string[]"
        }
      ],
      "stateMutability": "view",
      "type": "function",
      "constant": true
    },
    {
      "inputs": [
        {
          "internalType": "string",
          "name": "id",
          "type": "string"
        },
        {
          "internalType": "uint256",
          "name": "speed",
          "type": "uint256"
        },
        {
          "internalType": "string[]",
          "name": "route",
          "type": "string[]"
        },
        {
          "internalType": "string",
          "name": "current_edge_id",
          "type": "string"
        },
        {
          "internalType": "uint256",
          "name": "route_index",
          "type": "uint256"
        },
        {
          "internalType": "string",
          "name": "next_edge",
          "type": "string"
        },
        {
          "internalType": "string[]",
          "name": "next_edge_vehicles",
          "type": "string[]"
        }
      ],
      "name": "updateVehicleInfo",
      "outputs": [],
      "stateMutability": "nonpayable",
      "type": "function"
    }
  ],
  "bytecode": "0x608060405234801561001057600080fd5b506120bb806100206000396000f3fe608060405234801561001057600080fd5b506004361061007d5760003560e01c8063a3f9d4cc1161005b578063a3f9d4cc14610112578063a60e06cd1461012e578063d2d0faa11461015e578063e0133f231461018e5761007d565b806342002f21146100825780635c403bb9146100b257806363f35c98146100e2575b600080fd5b61009c60048036038101906100979190611b7b565b6101be565b6040516100a99190611e46565b60405180910390f35b6100cc60048036038101906100c79190611b7b565b610575565b6040516100d99190611e68565b60405180910390f35b6100fc60048036038101906100f79190611b7b565b61092c565b6040516101099190611e24565b60405180910390f35b61012c60048036038101906101279190611bbc565b610ce3565b005b61014860048036038101906101439190611b7b565b610deb565b6040516101559190611e24565b60405180910390f35b61017860048036038101906101739190611b7b565b6111a2565b6040516101859190611e46565b60405180910390f35b6101a860048036038101906101a39190611b7b565b611559565b6040516101b59190611e68565b60405180910390f35b6060600080836040516101d19190611e0d565b90815260200160405180910390206040518060e00160405290816000820180546101fa90611fcd565b80601f016020809104026020016040519081016040528092919081815260200182805461022690611fcd565b80156102735780601f1061024857610100808354040283529160200191610273565b820191906000526020600020905b81548152906001019060200180831161025657829003601f168201915b505050505081526020016001820154815260200160028201805480602002602001604051908101604052809291908181526020016000905b828210156103575783829060005260206000200180546102ca90611fcd565b80601f01602080910402602001604051908101604052809291908181526020018280546102f690611fcd565b80156103435780601f1061031857610100808354040283529160200191610343565b820191906000526020600020905b81548152906001019060200180831161032657829003601f168201915b5050505050815260200190600101906102ab565b50505050815260200160038201805461036f90611fcd565b80601f016020809104026020016040519081016040528092919081815260200182805461039b90611fcd565b80156103e85780601f106103bd576101008083540402835291602001916103e8565b820191906000526020600020905b8154815290600101906020018083116103cb57829003601f168201915b505050505081526020016004820154815260200160058201805461040b90611fcd565b80601f016020809104026020016040519081016040528092919081815260200182805461043790611fcd565b80156104845780601f1061045957610100808354040283529160200191610484565b820191906000526020600020905b81548152906001019060200180831161046757829003601f168201915b5050505050815260200160068201805480602002602001604051908101604052809291908181526020016000905b8282101561055e5783829060005260206000200180546104d190611fcd565b80601f01602080910402602001604051908101604052809291908181526020018280546104fd90611fcd565b801561054a5780601f1061051f5761010080835404028352916020019161054a565b820191906000526020600020905b81548152906001019060200180831161052d57829003601f168201915b5050505050815260200190600101906104b2565b505050508152505090508060a00151915050919050565b6000806000836040516105889190611e0d565b90815260200160405180910390206040518060e00160405290816000820180546105b190611fcd565b80601f01602080910402602001604051908101604052809291908181526020018280546105dd90611fcd565b801561062a5780601f106105ff5761010080835404028352916020019161062a565b820191906000526020600020905b81548152906001019060200180831161060d57829003601f168201915b505050505081526020016001820154815260200160028201805480602002602001604051908101604052809291908181526020016000905b8282101561070e57838290600052602060002001805461068190611fcd565b80601f01602080910402602001604051908101604052809291908181526020018280546106ad90611fcd565b80156106fa5780601f106106cf576101008083540402835291602001916106fa565b820191906000526020600020905b8154815290600101906020018083116106dd57829003601f168201915b505050505081526020019060010190610662565b50505050815260200160038201805461072690611fcd565b80601f016020809104026020016040519081016040528092919081815260200182805461075290611fcd565b801561079f5780601f106107745761010080835404028352916020019161079f565b820191906000526020600020905b81548152906001019060200180831161078257829003601f168201915b50505050508152602001600482015481526020016005820180546107c290611fcd565b80601f01602080910402602001604051908101604052809291908181526020018280546107ee90611fcd565b801561083b5780601f106108105761010080835404028352916020019161083b565b820191906000526020600020905b81548152906001019060200180831161081e57829003601f168201915b5050505050815260200160068201805480602002602001604051908101604052809291908181526020016000905b8282101561091557838290600052602060002001805461088890611fcd565b80601f01602080910402602001604051908101604052809291908181526020018280546108b490611fcd565b80156109015780601f106108d657610100808354040283529160200191610901565b820191906000526020600020905b8154815290600101906020018083116108e457829003601f168201915b505050505081526020019060010190610869565b505050508152505090508060200151915050919050565b60606000808360405161093f9190611e0d565b90815260200160405180910390206040518060e001604052908160008201805461096890611fcd565b80601f016020809104026020016040519081016040528092919081815260200182805461099490611fcd565b80156109e15780601f106109b6576101008083540402835291602001916109e1565b820191906000526020600020905b8154815290600101906020018083116109c457829003601f168201915b505050505081526020016001820154815260200160028201805480602002602001604051908101604052809291908181526020016000905b82821015610ac5578382906000526020600020018054610a3890611fcd565b80601f0160208091040260200160405190810160405280929190818152602001828054610a6490611fcd565b8015610ab15780601f10610a8657610100808354040283529160200191610ab1565b820191906000526020600020905b815481529060010190602001808311610a9457829003601f168201915b505050505081526020019060010190610a19565b505050508152602001600382018054610add90611fcd565b80601f0160208091040260200160405190810160405280929190818152602001828054610b0990611fcd565b8015610b565780601f10610b2b57610100808354040283529160200191610b56565b820191906000526020600020905b815481529060010190602001808311610b3957829003601f168201915b5050505050815260200160048201548152602001600582018054610b7990611fcd565b80601f0160208091040260200160405190810160405280929190818152602001828054610ba590611fcd565b8015610bf25780601f10610bc757610100808354040283529160200191610bf2565b820191906000526020600020905b815481529060010190602001808311610bd557829003601f168201915b5050505050815260200160068201805480602002602001604051908101604052809291908181526020016000905b82821015610ccc578382906000526020600020018054610c3f90611fcd565b80601f0160208091040260200160405190810160405280929190818152602001828054610c6b90611fcd565b8015610cb85780601f10610c8d57610100808354040283529160200191610cb8565b820191906000526020600020905b815481529060010190602001808311610c9b57829003601f168201915b505050505081526020019060010190610c20565b505050508152505090508060c00151915050919050565b60006040518060e0016040528089815260200188815260200187815260200186815260200185815260200184815260200183815250905080600089604051610d2b9190611e0d565b90815260200160405180910390206000820151816000019080519060200190610d55929190611910565b50602082015181600101556040820151816002019080519060200190610d7c929190611996565b506060820151816003019080519060200190610d99929190611910565b506080820151816004015560a0820151816005019080519060200190610dc0929190611910565b5060c0820151816006019080519060200190610ddd929190611996565b509050505050505050505050565b606060008083604051610dfe9190611e0d565b90815260200160405180910390206040518060e0016040529081600082018054610e2790611fcd565b80601f0160208091040260200160405190810160405280929190818152602001828054610e5390611fcd565b8015610ea05780601f10610e7557610100808354040283529160200191610ea0565b820191906000526020600020905b815481529060010190602001808311610e8357829003601f168201915b505050505081526020016001820154815260200160028201805480602002602001604051908101604052809291908181526020016000905b82821015610f84578382906000526020600020018054610ef790611fcd565b80601f0160208091040260200160405190810160405280929190818152602001828054610f2390611fcd565b8015610f705780601f10610f4557610100808354040283529160200191610f70565b820191906000526020600020905b815481529060010190602001808311610f5357829003601f168201915b505050505081526020019060010190610ed8565b505050508152602001600382018054610f9c90611fcd565b80601f0160208091040260200160405190810160405280929190818152602001828054610fc890611fcd565b80156110155780601f10610fea57610100808354040283529160200191611015565b820191906000526020600020905b815481529060010190602001808311610ff857829003601f168201915b505050505081526020016004820154815260200160058201805461103890611fcd565b80601f016020809104026020016040519081016040528092919081815260200182805461106490611fcd565b80156110b15780601f10611086576101008083540402835291602001916110b1565b820191906000526020600020905b81548152906001019060200180831161109457829003601f168201915b5050505050815260200160068201805480602002602001604051908101604052809291908181526020016000905b8282101561118b5783829060005260206000200180546110fe90611fcd565b80601f016020809104026020016040519081016040528092919081815260200182805461112a90611fcd565b80156111775780601f1061114c57610100808354040283529160200191611177565b820191906000526020600020905b81548152906001019060200180831161115a57829003601f168201915b5050505050815260200190600101906110df565b505050508152505090508060400151915050919050565b6060600080836040516111b59190611e0d565b90815260200160405180910390206040518060e00160405290816000820180546111de90611fcd565b80601f016020809104026020016040519081016040528092919081815260200182805461120a90611fcd565b80156112575780601f1061122c57610100808354040283529160200191611257565b820191906000526020600020905b81548152906001019060200180831161123a57829003601f168201915b505050505081526020016001820154815260200160028201805480602002602001604051908101604052809291908181526020016000905b8282101561133b5783829060005260206000200180546112ae90611fcd565b80601f01602080910402602001604051908101604052809291908181526020018280546112da90611fcd565b80156113275780601f106112fc57610100808354040283529160200191611327565b820191906000526020600020905b81548152906001019060200180831161130a57829003601f168201915b50505050508152602001906001019061128f565b50505050815260200160038201805461135390611fcd565b80601f016020809104026020016040519081016040528092919081815260200182805461137f90611fcd565b80156113cc5780601f106113a1576101008083540402835291602001916113cc565b820191906000526020600020905b8154815290600101906020018083116113af57829003601f168201915b50505050508152602001600482015481526020016005820180546113ef90611fcd565b80601f016020809104026020016040519081016040528092919081815260200182805461141b90611fcd565b80156114685780601f1061143d57610100808354040283529160200191611468565b820191906000526020600020905b81548152906001019060200180831161144b57829003601f168201915b5050505050815260200160068201805480602002602001604051908101604052809291908181526020016000905b828210156115425783829060005260206000200180546114b590611fcd565b80601f01602080910402602001604051908101604052809291908181526020018280546114e190611fcd565b801561152e5780601f106115035761010080835404028352916020019161152e565b820191906000526020600020905b81548152906001019060200180831161151157829003601f168201915b505050505081526020019060010190611496565b505050508152505090508060600151915050919050565b60008060008360405161156c9190611e0d565b90815260200160405180910390206040518060e001604052908160008201805461159590611fcd565b80601f01602080910402602001604051908101604052809291908181526020018280546115c190611fcd565b801561160e5780601f106115e35761010080835404028352916020019161160e565b820191906000526020600020905b8154815290600101906020018083116115f157829003601f168201915b505050505081526020016001820154815260200160028201805480602002602001604051908101604052809291908181526020016000905b828210156116f257838290600052602060002001805461166590611fcd565b80601f016020809104026020016040519081016040528092919081815260200182805461169190611fcd565b80156116de5780601f106116b3576101008083540402835291602001916116de565b820191906000526020600020905b8154815290600101906020018083116116c157829003601f168201915b505050505081526020019060010190611646565b50505050815260200160038201805461170a90611fcd565b80601f016020809104026020016040519081016040528092919081815260200182805461173690611fcd565b80156117835780601f1061175857610100808354040283529160200191611783565b820191906000526020600020905b81548152906001019060200180831161176657829003601f168201915b50505050508152602001600482015481526020016005820180546117a690611fcd565b80601f01602080910402602001604051908101604052809291908181526020018280546117d290611fcd565b801561181f5780601f106117f45761010080835404028352916020019161181f565b820191906000526020600020905b81548152906001019060200180831161180257829003601f168201915b5050505050815260200160068201805480602002602001604051908101604052809291908181526020016000905b828210156118f957838290600052602060002001805461186c90611fcd565b80601f016020809104026020016040519081016040528092919081815260200182805461189890611fcd565b80156118e55780601f106118ba576101008083540402835291602001916118e5565b820191906000526020600020905b8154815290600101906020018083116118c857829003601f168201915b50505050508152602001906001019061184d565b505050508152505090508060800151915050919050565b82805461191c90611fcd565b90600052602060002090601f01602090048101928261193e5760008555611985565b82601f1061195757805160ff1916838001178555611985565b82800160010185558215611985579182015b82811115611984578251825591602001919060010190611969565b5b50905061199291906119f6565b5090565b8280548282559060005260206000209081019282156119e5579160200282015b828111156119e45782518290805190602001906119d4929190611910565b50916020019190600101906119b6565b5b5090506119f29190611a13565b5090565b5b80821115611a0f5760008160009055506001016119f7565b5090565b5b80821115611a335760008181611a2a9190611a37565b50600101611a14565b5090565b508054611a4390611fcd565b6000825580601f10611a555750611a74565b601f016020900490600052602060002090810190611a7391906119f6565b5b50565b6000611a8a611a8584611eb4565b611e83565b9050808382526020820190508260005b85811015611aca5781358501611ab08882611b3c565b845260208401935060208301925050600181019050611a9a565b5050509392505050565b6000611ae7611ae284611ee0565b611e83565b905082815260208101848484011115611aff57600080fd5b611b0a848285611f8b565b509392505050565b600082601f830112611b2357600080fd5b8135611b33848260208601611a77565b91505092915050565b600082601f830112611b4d57600080fd5b8135611b5d848260208601611ad4565b91505092915050565b600081359050611b758161206e565b92915050565b600060208284031215611b8d57600080fd5b600082013567ffffffffffffffff811115611ba757600080fd5b611bb384828501611b3c565b91505092915050565b600080600080600080600060e0888a031215611bd757600080fd5b600088013567ffffffffffffffff811115611bf157600080fd5b611bfd8a828b01611b3c565b9750506020611c0e8a828b01611b66565b965050604088013567ffffffffffffffff811115611c2b57600080fd5b611c378a828b01611b12565b955050606088013567ffffffffffffffff811115611c5457600080fd5b611c608a828b01611b3c565b9450506080611c718a828b01611b66565b93505060a088013567ffffffffffffffff811115611c8e57600080fd5b611c9a8a828b01611b3c565b92505060c088013567ffffffffffffffff811115611cb757600080fd5b611cc38a828b01611b12565b91505092959891949750929550565b6000611cde8383611d5b565b905092915050565b6000611cf182611f20565b611cfb8185611f43565b935083602082028501611d0d85611f10565b8060005b85811015611d495784840389528151611d2a8582611cd2565b9450611d3583611f36565b925060208a01995050600181019050611d11565b50829750879550505050505092915050565b6000611d6682611f2b565b611d708185611f54565b9350611d80818560208601611f9a565b611d898161205d565b840191505092915050565b6000611d9f82611f2b565b611da98185611f65565b9350611db9818560208601611f9a565b611dc28161205d565b840191505092915050565b6000611dd882611f2b565b611de28185611f76565b9350611df2818560208601611f9a565b80840191505092915050565b611e0781611f81565b82525050565b6000611e198284611dcd565b915081905092915050565b60006020820190508181036000830152611e3e8184611ce6565b905092915050565b60006020820190508181036000830152611e608184611d94565b905092915050565b6000602082019050611e7d6000830184611dfe565b92915050565b6000604051905081810181811067ffffffffffffffff82111715611eaa57611ea961202e565b5b8060405250919050565b600067ffffffffffffffff821115611ecf57611ece61202e565b5b602082029050602081019050919050565b600067ffffffffffffffff821115611efb57611efa61202e565b5b601f19601f8301169050602081019050919050565b6000819050602082019050919050565b600081519050919050565b600081519050919050565b6000602082019050919050565b600082825260208201905092915050565b600082825260208201905092915050565b600082825260208201905092915050565b600081905092915050565b6000819050919050565b82818337600083830152505050565b60005b83811015611fb8578082015181840152602081019050611f9d565b83811115611fc7576000848401525b50505050565b60006002820490506001821680611fe557607f821691505b60208210811415611ff957611ff8611fff565b5b50919050565b7f4e487b7100000000000000000000000000000000000000000000000000000000600052602260045260246000fd5b7f4e487b7100000000000000000000000000000000000000000000000000000000600052604160045260246000fd5b6000601f19601f8301169050919050565b61207781611f81565b811461208257600080fd5b5056fea26469706673582212202f6ada29b7df26f82616db0bb4efdb51308f7a8413f4de2369f70bbdc18ca23e64736f6c63430008000033",
  "immutableReferences": {},
  "source": "// SPDX-License-Identifier: MIT\r\npragma solidity ^0.8.0;\r\n\r\ncontract SmartContract {\r\n    // Define a struct to represent a vehicle\r\n    struct Vehicle {\r\n        string id;\r\n        uint256 speed;\r\n        string[] route;\r\n        string current_edge_id;\r\n        uint256 route_index;\r\n        string next_edge;\r\n        string[] next_edge_vehicles;\r\n    }\r\n\r\n    // Define a mapping to store vehicle data by ID\r\n    mapping (string => Vehicle) vehicles;\r\n\r\n    // Function to retrieve vehicle data by ID\r\n    function getVehicleSpeed(string memory id) public view returns (uint256) {\r\n        Vehicle memory vehicle = vehicles[id];\r\n        return (vehicle.speed);\r\n    }\r\n    function getVehicleCurrentEdge(string memory id) public view returns (string memory) {\r\n        Vehicle memory vehicle = vehicles[id];\r\n        return (vehicle.current_edge_id);\r\n    }\r\n    function getVehicleRoute(string memory id) public view returns (string[] memory) {\r\n        Vehicle memory vehicle = vehicles[id];\r\n        return (vehicle.route);\r\n    }\r\n    function getVehicleRouteIndex(string memory id) public view returns (uint256) {\r\n        Vehicle memory vehicle = vehicles[id];\r\n        return (vehicle.route_index);\r\n    }\r\n    function getVehicleNextEdge(string memory id) public view returns (string memory) {\r\n        Vehicle memory vehicle = vehicles[id];\r\n        return (vehicle.next_edge);\r\n    }\r\n    function getVehicleNextEdgeVehicles(string memory id) public view returns (string[] memory) {\r\n        Vehicle memory vehicle = vehicles[id];\r\n        return (vehicle.next_edge_vehicles);\r\n    }\r\n\r\n    // Function to update vehicle data by ID\r\n    function updateVehicleInfo(string memory id, uint256 speed,string[] memory route,string memory current_edge_id ,uint256 route_index,string memory next_edge,string[] memory next_edge_vehicles) public {\r\n        Vehicle memory vehicle = Vehicle(id, speed,route,current_edge_id, route_index,next_edge,next_edge_vehicles);\r\n        vehicles[id] = vehicle;\r\n    }\r\n}",
  "sourcePath": "C:\\Users\\n1704\\Documents\\Academics\\E4_SEM2\\Project\\AI_Integrated_Blockchain-Autonomous\\contracts\\SmartContract.sol",
  "compiler": {
    "name": "solc",
    "version": "0.8.0+commit.c7dfd78e.Emscripten.clang"
  },
  "schemaVersion": "3.4.12",
  "updatedAt": "2023-03-04T15:01:26.851Z",
  "networkType": "ethereum",
  "devdoc": {
    "kind": "dev",
    "methods": {},
    "version": 1
  },
  "userdoc": {
    "kind": "user",
    "methods": {},
    "version": 1
  }
}