{
  "contractName": "SmartContract",
  "abi": [
    {
      "inputs": [
        {
          "internalType": "string",
          "name": "id",
          "type": "string"
        }
      ],
      "name": "getVehicleInfo",
      "outputs": [
        {
          "internalType": "uint256",
          "name": "",
          "type": "uint256"
        }
      ],
      "stateMutability": "view",
      "type": "function",
      "constant": true
    },
    {
      "inputs": [
        {
          "internalType": "string",
          "name": "id",
          "type": "string"
        },
        {
          "internalType": "uint256",
          "name": "speed",
          "type": "uint256"
        }
      ],
      "name": "updateVehicleInfo",
      "outputs": [],
      "stateMutability": "nonpayable",
      "type": "function"
    }
  ],
  "bytecode": "0x608060405234801561001057600080fd5b5061058c806100206000396000f3fe608060405234801561001057600080fd5b50600436106100365760003560e01c8063ab32c5081461003b578063e37e867b1461006b575b600080fd5b610055600480360381019061005091906102e5565b610087565b60405161006291906103d1565b60405180910390f35b61008560048036038101906100809190610326565b61015e565b005b60008060008360405161009a91906103ba565b90815260200160405180910390206040518060400160405290816000820180546100c3906104af565b80601f01602080910402602001604051908101604052809291908181526020018280546100ef906104af565b801561013c5780601f106101115761010080835404028352916020019161013c565b820191906000526020600020905b81548152906001019060200180831161011f57829003601f168201915b5050505050815260200160018201548152505090508060200151915050919050565b600060405180604001604052808481526020018381525090508060008460405161018891906103ba565b908152602001604051809103902060008201518160000190805190602001906101b29291906101c5565b5060208201518160010155905050505050565b8280546101d1906104af565b90600052602060002090601f0160209004810192826101f3576000855561023a565b82601f1061020c57805160ff191683800117855561023a565b8280016001018555821561023a579182015b8281111561023957825182559160200191906001019061021e565b5b509050610247919061024b565b5090565b5b8082111561026457600081600090555060010161024c565b5090565b600061027b6102768461041d565b6103ec565b90508281526020810184848401111561029357600080fd5b61029e84828561046d565b509392505050565b600082601f8301126102b757600080fd5b81356102c7848260208601610268565b91505092915050565b6000813590506102df8161053f565b92915050565b6000602082840312156102f757600080fd5b600082013567ffffffffffffffff81111561031157600080fd5b61031d848285016102a6565b91505092915050565b6000806040838503121561033957600080fd5b600083013567ffffffffffffffff81111561035357600080fd5b61035f858286016102a6565b9250506020610370858286016102d0565b9150509250929050565b60006103858261044d565b61038f8185610458565b935061039f81856020860161047c565b80840191505092915050565b6103b481610463565b82525050565b60006103c6828461037a565b915081905092915050565b60006020820190506103e660008301846103ab565b92915050565b6000604051905081810181811067ffffffffffffffff8211171561041357610412610510565b5b8060405250919050565b600067ffffffffffffffff82111561043857610437610510565b5b601f19601f8301169050602081019050919050565b600081519050919050565b600081905092915050565b6000819050919050565b82818337600083830152505050565b60005b8381101561049a57808201518184015260208101905061047f565b838111156104a9576000848401525b50505050565b600060028204905060018216806104c757607f821691505b602082108114156104db576104da6104e1565b5b50919050565b7f4e487b7100000000000000000000000000000000000000000000000000000000600052602260045260246000fd5b7f4e487b7100000000000000000000000000000000000000000000000000000000600052604160045260246000fd5b61054881610463565b811461055357600080fd5b5056fea2646970667358221220bfda8fe24cdf1c79af021f566b9599501ce8979c03d38b5f231bddf8a3daafb764736f6c63430008000033",
  "immutableReferences": {},
  "source": "// SPDX-License-Identifier: MIT\r\npragma solidity ^0.8.0;\r\n\r\ncontract SmartContract {\r\n    // Define a struct to represent a vehicle\r\n    struct Vehicle {\r\n        string id;\r\n        uint256 speed;\r\n    }\r\n\r\n    // Define a mapping to store vehicle data by ID\r\n    mapping (string => Vehicle) vehicles;\r\n\r\n    // Function to retrieve vehicle data by ID\r\n    function getVehicleInfo(string memory id) public view returns (uint256) {\r\n        Vehicle memory vehicle = vehicles[id];\r\n        return (vehicle.speed);\r\n    }\r\n\r\n    // Function to update vehicle data by ID\r\n    function updateVehicleInfo(string memory id, uint256 speed) public {\r\n        Vehicle memory vehicle = Vehicle(id, speed);\r\n        vehicles[id] = vehicle;\r\n    }\r\n}",
  "sourcePath": "C:\\Users\\n1704\\Documents\\Academics\\E4_SEM2\\Project\\AI_Integrated_Blockchain-Autonomous\\contracts\\SmartContract.sol",
  "compiler": {
    "name": "solc",
    "version": "0.8.0+commit.c7dfd78e.Emscripten.clang"
  },
  "schemaVersion": "3.4.12",
  "updatedAt": "2023-02-28T19:01:16.355Z",
  "networkType": "ethereum",
  "devdoc": {
    "kind": "dev",
    "methods": {},
    "version": 1
  },
  "userdoc": {
    "kind": "user",
    "methods": {},
    "version": 1
  }
}